:100000000C946C000C9494000C9494000C94940048
:100010000C9494000C9494000C9494000C94940010
:100020000C9494000C9494000C9494000C94940000
:100030000C9494000C9494000C9494000C949400F0
:100040000C9437020C9494000C947F020C94AC0234
:100050000C9494000C9494000C9494000C949400D0
:100060000C9494000C94940005A84CCDB2D44EB9D5
:100070003836A9020C50B9918688083CA6AAAA2A4B
:10008000BE000000803F00000000240027002A007E
:1000900000000000250028002B00040404040404D0
:1000A0000404020202020202030303030303010227
:1000B00004081020408001020408102001020408F6
:1000C00010200000000800020100000304070000E7
:1000D000000000000000D20211241FBECFEFD8E0C4
:1000E000DEBFCDBF11E0A0E0B1E0E2EEFDE002C076
:1000F00005900D92A832B107D9F721E0A8E2B1E04E
:1001000001C01D92AE3CB207E1F710E0CCE6D0E0B2
:1001100004C02197FE010E94E906CB36D107C9F73A
:100120000E94FF020C94EF060C9400003FB7F89475
:100130008091C5019091C601A091C701B091C801FD
:1001400026B5A89B05C02F3F19F00196A11DB11D32
:100150003FBFBA2FA92F982F8827BC01CD01620F6E
:10016000711D811D911D42E0660F771F881F991F29
:100170004A95D1F70895FC01A48DA80FB92FB11DA0
:10018000A35ABF4F2C91848D90E001968F739927CD
:10019000848FA689B7892C93A089B1898C918370AB
:1001A00080648C93938D848D981306C00288F389A4
:1001B000E02D80818F7D80830895FC01818D228DCB
:1001C00090E0805C9F4F821B91098F73992708955F
:1001D00088E291E00E94DD009C0181E0232B09F47C
:1001E00080E0089580E090E0892B29F00E94E800EB
:1001F00081110C9400000895FC01918D828D981757
:1002000031F0828DE80FF11D858D90E008958FEF1C
:100210009FEF0895FC01918D828D981761F0A28D5A
:10022000AE0FBF2FB11D5D968C91928D9F5F9F7316
:10023000928F90E008958FEF9FEF0895FC01538D0A
:10024000448D842F90E0252F30E0821B930B5417B0
:1002500010F0CF96089501970895CF93DF93EC01A6
:10026000888D81110FC0DF91CF9108950FB607FCE3
:100270000DC08C9185FF0AC0808185FF07C0CE012B
:100280000E94BB00AA89BB89E889F9898C9185FD08
:10029000EDCF808186FFEACFE6CFEF92FF920F93FA
:1002A0001F93CF93DF93EC01F62E81E0888F9B8D17
:1002B0008C8D98131AC0E889F989808185FF15C053
:1002C0009FB7F894EE89FF896083E889F989808176
:1002D0008370806480839FBF81E090E0DF91CF9145
:1002E0001F910F91FF90EF9008950B8D10E00F5F1D
:1002F0001F4F0F731127E02E8C8D8E1579F0EB8D2B
:10030000EC0FFD2FF11DE35AFF4FF0829FB7F894D9
:100310000B8FEA89FB8980818062DCCF0FB607FCF6
:10032000EBCFE889F989808185FFE6CFCE010E9475
:10033000BB00E2CFCF92DF92EF92FF920F931F9319
:10034000CF93DF937C016A0100E010E00C151D05DE
:1003500051F4C801DF91CF911F910F91FF90EF9061
:10036000DF90CF900895EB01D701ED91FC910190C2
:10037000F081E02D6991C7010995892B51F30F5F39
:100380001F4FBE01E3CFEBECF0E02491E7EBF0E090
:100390009491E3EAF0E0E491E11519F1211589F077
:1003A000243001F150F4223029F12330F9F4209166
:1003B00080002F772093800004C02730F1F0283090
:1003C00011F1F0E0EE0FFF1FE057FF4FA591B49140
:1003D0002FB7F89481111BC08C91909598239C9312
:1003E0002FBF0895209180002F7DE4CF24B52F7773
:1003F00024BDE7CF24B52F7DFBCF2091B0002F7710
:100400002093B000DECF2091B0002F7DF9CF8C91EA
:10041000982BE5CFE7EBF0E02491E3EAF0E084915C
:100420008115A1F090E0880F991FFC01EA57FF4F5A
:10043000A591B491FC01E057FF4F859194918FB73E
:10044000F8949C91E22FE92BEC938FBF0895BC01A7
:10045000009761F0FC0101900020E9F73197AF01AE
:10046000481B590B88E291E00C949A0108951F9261
:100470001FB61F9211242F933F938F939F93AF9397
:10048000BF938091CA019091CB01A091CC01B09112
:10049000CD013091C90123E0230F2D3750F501968E
:1004A000A11DB11D2093C9018093CA019093CB0176
:1004B000A093CC01B093CD018091C5019091C6016C
:1004C000A091C701B091C8010196A11DB11D8093F3
:1004D000C5019093C601A093C701B093C801BF9115
:1004E000AF919F918F913F912F911F901FBE1F90B1
:1004F000189526E8230F0296A11DB11DD3CF2F9387
:100500002FB72F938F939F93EF93FF93E091380131
:10051000F09139018081E0913E01F0913F0182FD2F
:1005200019C09081809141018F5F8F7320914201AA
:10053000821741F0E0914101F0E0E85DFE4F958FB8
:1005400080934101FF91EF919F918F912F912FBF48
:100550002F9118958081F6CF1F920F920FB60F92B0
:1005600011242F933F934F935F936F937F938F93B8
:100570009F93AF93BF93EF93FF9388E291E00E9424
:10058000BB00FF91EF91BF91AF919F918F917F91B0
:100590006F915F914F913F912F910F900FBE0F90F0
:1005A0001F901895E8E2F1E01382128288EE93E042
:1005B000A0E0B0E084839583A683B78384E091E0D4
:1005C0009183808385EC90E09587848784EC90E02C
:1005D0009787868780EC90E0918B808B81EC90E010
:1005E000938B828B82EC90E0958B848B86EC90E0F1
:1005F000978B868B118E128E138E148E0895CDB725
:10060000DEB7A1970FB6F894DEBF0FBECDBF7894CA
:1006100084B5826084BD84B5816084BD85B5826007
:1006200085BD85B5816085BD80916E0081608093B8
:100630006E00109281008091810082608093810021
:100640008091810081608093810080918000816031
:10065000809380008091B10084608093B10080918C
:10066000B00081608093B00080917A0084608093B4
:100670007A0080917A00826080937A0080917A007B
:10068000816080937A0080917A00806880937A00FC
:100690001092C1000E940A02E0913801F0913901E4
:1006A00082E08083E0913401F09135011082E09185
:1006B0003601F09137018FEC808310924001E09178
:1006C0003C01F0913D0186E08083E0913A01F09198
:1006D0003B01808180618083E0913A01F0913B0190
:1006E000808188608083E0913A01F0913B018081B4
:1006F00080688083E0913A01F0913B0180818F7D99
:1007000080839BEC292E90E0392E23E7C22ED12C3A
:100710003AE0832E912CA12CB12C00E010E0B8011E
:10072000012E000C880B990B0E948C0625E33AEFF2
:100730004EE85CE30E94B9050E94990420E030E095
:100740004EEF52E40E94B90520E030E04EEF52E453
:100750000E944E060E9454062B017B010E940A0251
:100760004114510409F081C080E00E94C301C60118
:100770000197F1F70F5F1F4F083621E0120779F656
:1007800080E480937C0080917A00806480937A007A
:1007900080917A0086FDFCCF00917800109179005D
:1007A00082E191E00E9427022801012E000C6608D8
:1007B000770817FFA3C06DE288E291E00E944D0127
:1007C00022273327A901241935094609570919A2F7
:1007D0008E010F5D1F4F29013A01CA01B901A50120
:1007E00094010E94C706605DF80162938F01FAE0F0
:1007F0004F1651046104710470F7C8010E9427026A
:1008000085E291E00E9427020E9496002B013C01A4
:1008100014E6E12EF12C00E010E00E94960064192D
:10082000750986099709683E734081059105A8F30B
:1008300021E0E21AF1080109110988EE480E83E06F
:10084000581E611C711CE114F1040105110529F702
:1008500080E090E0892B09F460CF0E94E8008115C8
:1008600009F45BCF0E94000058CF2FEF42165104CD
:1008700011F481E07ACFF1018491843069F160F460
:100880008230D9F08330F1F0813091F0F0E8EF164A
:10089000F1040CF469CFEDCF873041F18830B1F726
:1008A0008091B00080628093B0004092B4005FCF2E
:1008B00084B5806884BD47BC5ACF84B5806284BD4E
:1008C00048BC55CF80918000806880938000509212
:1008D0008900409288004BCF809180008062809395
:1008E000800050928B0040928A0041CF8091B000EE
:1008F00080688093B0004092B30039CF980140E007
:1009000050E019A2CE0181967C0129013A01CA0169
:10091000B901A50194010E94C706605DF7016293C9
:100920007F01FAE04F1651046104710470F7C701AA
:1009300065CF9F930E94A3040F9007FCEE5F0C9479
:10094000CC040C947C050E94E804D8F3E894E0E021
:10095000BB279F57F0F02AED3FE049EC06C0EE0FB1
:10096000BB0F661F771F881F28F0B23A6207730714
:10097000840728F0B25A620B730B840BE3959A95A7
:1009800072F7803830F49A95BB0F661F771F881F67
:10099000D2F790480C947005EF93E0FF07C0A2EAED
:1009A0002AED3FE049EC5FEB0E9413050E94A10590
:1009B0000F90039401FC9058E8E6F0E00C947F055A
:1009C00057FD9058440F551F59F05F3F71F0479500
:1009D000880F97FB991F61F09F3F79F087950895E5
:1009E000121613061406551FF2CF4695F1DF08C004
:1009F000161617061806991FF1CF86957105610521
:100A0000089408950E94930538F00E949A0520F0FA
:100A100039F49F3F19F426F40C947C050EF4E0950C
:100A2000E7FB0C946805E92F0E94E00458F3BA171D
:100A3000620773078407950720F079F4A6F50C94F4
:100A4000B2050EF4E0950B2EBA2FA02D0B01B901C3
:100A500090010C01CA01A0011124FF27591B99F034
:100A6000593F50F4503E68F11A16F040A22F232F40
:100A7000342F4427585FF3CF469537952795A79590
:100A8000F0405395C9F77EF41F16BA0B620B730B37
:100A9000840BBAF09150A1F0FF0FBB1F661F771FA8
:100AA000881FC2F70EC0BA0F621F731F841F48F45D
:100AB000879577956795B795F7959E3F08F0B0CFE6
:100AC0009395880F08F09927EE0F979587950895CD
:100AD00097F99F6780E870E060E008959F3F31F0EC
:100AE000915020F4879577956795B795880F911D5C
:100AF0009695879597F908959FEF80EC08959F93B9
:100B00008F937F936F93FF93EF939B01AC010E94B0
:100B1000B905EF91FF910E9426062F913F914F91C9
:100B20005F910C94B90500240A941616170618064E
:100B30000906089500240A941216130614060506E1
:100B40000895092E0394000C11F4882352F0BB0F72
:100B500040F4BF2B11F460FF04C06F5F7F4F8F4FD5
:100B60009F4F0895E894BB2766277727CB0197F915
:100B700008950E94CC050C94A1050E94930538F0BD
:100B80000E949A0520F0952311F00C9468050C94AE
:100B90007C0511240C94B3050E94E00470F3959F2A
:100BA000C1F3950F50E0551F629FF001729FBB2764
:100BB000F00DB11D639FAA27F00DB11DAA1F649F00
:100BC0006627B00DA11D661F829F2227B00DA11DB3
:100BD000621F739FB00DA11D621F839FA00D611D39
:100BE000221F749F3327A00D611D231F849F600D5A
:100BF000211D822F762F6A2F11249F5750409AF083
:100C0000F1F088234AF0EE0FFF1FBB1F661F771F0E
:100C1000881F91505040A9F79E3F510580F00C94D9
:100C200068050C94B3055F3FE4F3983ED4F38695D2
:100C300077956795B795F795E7959F5FC1F7FE2B79
:100C4000880F911D9695879597F90895DF93CF9317
:100C50001F930F93FF92EF92DF927B018C016894B8
:100C600006C0DA2EEF010E94CC05FE01E894A591A2
:100C70002591359145915591A6F3EF010E941305F9
:100C8000FE019701A801DA9469F7DF90EF90FF90D9
:100C90000F911F91CF91DF9108955058BB27AA273C
:100CA0000E9413050C94A1050E945B066894B11183
:100CB0000C94B30508950E94E80488F09F5798F0BB
:100CC000B92F9927B751B0F0E1F0660F771F881F51
:100CD000991F1AF0BA95C9F714C0B13091F00E946B
:100CE000B205B1E008950C94B205672F782F8827DC
:100CF000B85F39F0B93FCCF3869577956795B39592
:100D0000D9F73EF490958095709561957F4F8F4F00
:100D10009F4F0895E89409C097FB3EF49095809505
:100D2000709561957F4F8F4F9F4F9923A9F0F92FB1
:100D300096E9BB279395F695879577956795B7952F
:100D4000F111F8CFFAF4BB0F11F460FF1BC06F5F15
:100D50007F4F8F4F9F4F16C0882311F096E911C027
:100D6000772321F09EE8872F762F05C0662371F048
:100D700096E8862F70E060E02AF09A95660F771F5C
:100D8000881FDAF7880F9695879597F90895A1E25D
:100D90001A2EAA1BBB1BFD010DC0AA1FBB1FEE1FF5
:100DA000FF1FA217B307E407F50720F0A21BB30B40
:100DB000E40BF50B661F771F881F991F1A9469F7BC
:100DC00060957095809590959B01AC01BD01CF0118
:100DD0000895EE0FFF1F0590F491E02D0994F8940B
:020DE000FFCF43
:100DE200000000004D019A011E012D01DD000A01E3
:100DF200FC00416D706C6966696564205369676EB9
:080E0200616C3A20000D0A00AA
:107E0000112484B714BE81FFFDD085E080938100EA
:107E100082E08093C00088E18093C10096E0909357
:107E2000C20090E19093C400809360008EE0809344
:107E30006000259A86E020E33CEF91E030938500D6
:107E40002093840096BBB09BFECF1D9AA8958150CD
:107E5000A9F7C0E0D0E008E138E0F32EEE24E39487
:107E600045E0B42E51E1A52E13E0A7D0813491F462
:107E7000A4D0D82EAED082E8D81203C084E096D029
:107E800092C0E1E8DE1203C084E090D08CC083E0B1
:107E90008DD089C0823419F484E1A7D084C08534A0
:107EA00019F485E0A2D07FC0853549F486D0C82F6B
:107EB00084D0D0E0D82BCC0FDD1F8BD074C086359A
:107EC00029F484E092D080E071D06DC0843609F04E
:107ED0003FC073D072D0982E70D0C115F0E7DF0785
:107EE00038F4FE0117BFE895C12CDD24D39403C0FC
:107EF000C12CDD24D39461D0F60181936F019E12D1
:107F0000FACFC115F0E7DF0718F0FE0117BFE895BB
:107F100060D007B600FCFDCFFE01A0E0B1E08C917F
:107F200011962C91119790E0922B0C01E7BEE895E9
:107F3000112432961296A03881E0B80781F7FE012D
:107F4000B7BEE89507B600FCFDCFA7BEE8952BC0ED
:107F50008437B1F432D031D0982E2FD03AD0892C3A
:107F6000FE016F018FEFC81AD80A84911FD08A943E
:107F7000F6018110F6CF21969A94C90DD11D13C038
:107F8000853741F426D08EE111D085E90FD08FE0FE
:107F90000DD009C0813531F400936000F09260008B
:107FA00018D001C016D080E101D05FCF9091C00001
:107FB00095FFFCCF8093C60008958091C00087FF95
:107FC000FCCF8091C00084FD01C0A8958091C600BF
:107FD0000895F3DF803239F088E18093600088E013
:107FE00080936000FFCF84E1E1CFCF93C82FE5DF1E
:107FF000C150E9F7CF91EDCFE0E6F0E098E1908352
:1080000080830895E0E6F0E088E180831082EE2727
:04801000FF270994A9
:027FFE00040479
:0400000300007E007B
:00000001FF
